{
  "contractName": "StateChannel",
  "abi": [
    {
      "constant": true,
      "inputs": [],
      "name": "status",
      "outputs": [
        {
          "name": "",
          "type": "uint8"
        }
      ],
      "payable": false,
      "stateMutability": "view",
      "type": "function"
    },
    {
      "constant": true,
      "inputs": [],
      "name": "deadline",
      "outputs": [
        {
          "name": "",
          "type": "uint256"
        }
      ],
      "payable": false,
      "stateMutability": "view",
      "type": "function"
    },
    {
      "constant": true,
      "inputs": [
        {
          "name": "",
          "type": "uint256"
        }
      ],
      "name": "plist",
      "outputs": [
        {
          "name": "",
          "type": "address"
        }
      ],
      "payable": false,
      "stateMutability": "view",
      "type": "function"
    },
    {
      "constant": true,
      "inputs": [],
      "name": "bestRound",
      "outputs": [
        {
          "name": "",
          "type": "uint256"
        }
      ],
      "payable": false,
      "stateMutability": "view",
      "type": "function"
    },
    {
      "constant": true,
      "inputs": [],
      "name": "disputePeriod",
      "outputs": [
        {
          "name": "",
          "type": "uint256"
        }
      ],
      "payable": false,
      "stateMutability": "view",
      "type": "function"
    },
    {
      "constant": true,
      "inputs": [],
      "name": "t_start",
      "outputs": [
        {
          "name": "",
          "type": "uint256"
        }
      ],
      "payable": false,
      "stateMutability": "view",
      "type": "function"
    },
    {
      "constant": true,
      "inputs": [],
      "name": "hstate",
      "outputs": [
        {
          "name": "",
          "type": "bytes32"
        }
      ],
      "payable": false,
      "stateMutability": "view",
      "type": "function"
    },
    {
      "inputs": [
        {
          "name": "_plist",
          "type": "address[]"
        },
        {
          "name": "_disputePeriod",
          "type": "uint256"
        }
      ],
      "payable": false,
      "stateMutability": "nonpayable",
      "type": "constructor"
    },
    {
      "anonymous": false,
      "inputs": [
        {
          "indexed": true,
          "name": "deadline",
          "type": "uint256"
        }
      ],
      "name": "EventDispute",
      "type": "event"
    },
    {
      "anonymous": false,
      "inputs": [
        {
          "indexed": true,
          "name": "bestround",
          "type": "uint256"
        }
      ],
      "name": "EventResolve",
      "type": "event"
    },
    {
      "anonymous": false,
      "inputs": [
        {
          "indexed": true,
          "name": "bestround",
          "type": "uint256"
        },
        {
          "indexed": false,
          "name": "hstate",
          "type": "bytes32"
        }
      ],
      "name": "EventEvidence",
      "type": "event"
    },
    {
      "anonymous": false,
      "inputs": [
        {
          "indexed": true,
          "name": "bestround",
          "type": "uint256"
        },
        {
          "indexed": false,
          "name": "hstate",
          "type": "bytes32"
        }
      ],
      "name": "EventClose",
      "type": "event"
    },
    {
      "constant": false,
      "inputs": [],
      "name": "triggerDispute",
      "outputs": [],
      "payable": false,
      "stateMutability": "nonpayable",
      "type": "function"
    },
    {
      "constant": false,
      "inputs": [
        {
          "name": "sigs",
          "type": "uint256[]"
        },
        {
          "name": "_i",
          "type": "uint256"
        },
        {
          "name": "_hstate",
          "type": "bytes32"
        }
      ],
      "name": "setstate",
      "outputs": [],
      "payable": false,
      "stateMutability": "nonpayable",
      "type": "function"
    },
    {
      "constant": false,
      "inputs": [],
      "name": "resolve",
      "outputs": [],
      "payable": false,
      "stateMutability": "nonpayable",
      "type": "function"
    },
    {
      "constant": false,
      "inputs": [
        {
          "name": "sigs",
          "type": "uint256[]"
        },
        {
          "name": "_i",
          "type": "uint256"
        },
        {
          "name": "_hstate",
          "type": "bytes32"
        }
      ],
      "name": "close",
      "outputs": [],
      "payable": false,
      "stateMutability": "nonpayable",
      "type": "function"
    },
    {
      "constant": true,
      "inputs": [],
      "name": "getDispute",
      "outputs": [
        {
          "name": "",
          "type": "uint256"
        },
        {
          "name": "",
          "type": "uint256"
        },
        {
          "name": "",
          "type": "uint256"
        }
      ],
      "payable": false,
      "stateMutability": "view",
      "type": "function"
    },
    {
      "constant": true,
      "inputs": [
        {
          "name": "pub",
          "type": "address"
        },
        {
          "name": "h",
          "type": "bytes32"
        },
        {
          "name": "v",
          "type": "uint8"
        },
        {
          "name": "r",
          "type": "bytes32"
        },
        {
          "name": "s",
          "type": "bytes32"
        }
      ],
      "name": "verifySignature",
      "outputs": [],
      "payable": false,
      "stateMutability": "pure",
      "type": "function"
    },
    {
      "constant": true,
      "inputs": [],
      "name": "getStateHash",
      "outputs": [
        {
          "name": "",
          "type": "bytes32"
        }
      ],
      "payable": false,
      "stateMutability": "view",
      "type": "function"
    },
    {
      "constant": true,
      "inputs": [],
      "name": "latestClaim",
      "outputs": [
        {
          "name": "",
          "type": "uint256"
        }
      ],
      "payable": false,
      "stateMutability": "view",
      "type": "function"
    }
  ],
  "bytecode": "0x6080604052600060045534801561001557600080fd5b50604051610f9a380380610f9a833981018060405281019080805182019291906020018051906020019092919050505060008090505b825181101561014c576000838281518110151561006457fe5b9060200190602002015190806001815401808255809150509060018203906000526020600020016000909192909190916101000a81548173ffffffffffffffffffffffffffffffffffffffff021916908373ffffffffffffffffffffffffffffffffffffffff16021790555050600180600085848151811015156100e457fe5b9060200190602002015173ffffffffffffffffffffffffffffffffffffffff1673ffffffffffffffffffffffffffffffffffffffff16815260200190815260200160002060006101000a81548160ff021916908315150217905550808060010191505061004b565b81600281905550505050610e35806101656000396000f3006080604052600436106100db576000357c0100000000000000000000000000000000000000000000000000000000900463ffffffff16806302bf9e7f146100e0578063200d2ed21461015a5780632810e1d61461019357806329dcb0cf146101aa5780633f5de7ed146101d5578063445ddf3c14610253578063476e494f146102c057806352f91acf146102eb5780635bf31d4d146103025780635c8734811461032d578063600c1f16146103ab5780637591e627146103d65780637e8cbcb31461040957806382dbab7314610434578063948b557a14610467575b600080fd5b3480156100ec57600080fd5b50610158600480360381019080803573ffffffffffffffffffffffffffffffffffffffff1690602001909291908035600019169060200190929190803560ff169060200190929190803560001916906020019092919080356000191690602001909291905050506104a0565b005b34801561016657600080fd5b5061016f610567565b6040518082600281111561017f57fe5b60ff16815260200191505060405180910390f35b34801561019f57600080fd5b506101a861057a565b005b3480156101b657600080fd5b506101bf6106b4565b6040518082815260200191505060405180910390f35b3480156101e157600080fd5b50610251600480360381019080803590602001908201803590602001908080602002602001604051908101604052809392919081815260200183836020028082843782019150505050505091929192908035906020019092919080356000191690602001909291905050506106ba565b005b34801561025f57600080fd5b5061027e6004803603810190808035906020019092919050505061094f565b604051808273ffffffffffffffffffffffffffffffffffffffff1673ffffffffffffffffffffffffffffffffffffffff16815260200191505060405180910390f35b3480156102cc57600080fd5b506102d561098d565b6040518082815260200191505060405180910390f35b3480156102f757600080fd5b50610300610993565b005b34801561030e57600080fd5b50610317610a8a565b6040518082815260200191505060405180910390f35b34801561033957600080fd5b506103a960048036038101908080359060200190820180359060200190808060200260200160405190810160405280939291908181526020018383602002808284378201915050505050509192919290803590602001909291908035600019169060200190929190505050610a90565b005b3480156103b757600080fd5b506103c0610d61565b6040518082815260200191505060405180910390f35b3480156103e257600080fd5b506103eb610d6b565b60405180826000191660001916815260200191505060405180910390f35b34801561041557600080fd5b5061041e610da8565b6040518082815260200191505060405180910390f35b34801561044057600080fd5b50610449610dae565b60405180826000191660001916815260200191505060405180910390f35b34801561047357600080fd5b5061047c610db4565b60405180848152602001838152602001828152602001935050505060405180910390f35b6000600185858585604051600081526020016040526040518085600019166000191681526020018460ff1660ff1681526020018360001916600019168152602001826000191660001916815260200194505050505060206040516020810390808403906000865af1158015610519573d6000803e3d6000fd5b5050506020604051035190508073ffffffffffffffffffffffffffffffffffffffff168673ffffffffffffffffffffffffffffffffffffffff1614151561055f57600080fd5b505050505050565b600360009054906101000a900460ff1681565b600160003373ffffffffffffffffffffffffffffffffffffffff1673ffffffffffffffffffffffffffffffffffffffff16815260200190815260200160002060009054906101000a900460ff16156106ad57600654431115156105dc57600080fd5b600160028111156105e957fe5b600360009054906101000a900460ff16600281111561060457fe5b14151561061057600080fd5b6002600360006101000a81548160ff0219169083600281111561062f57fe5b02179055506060604051908101604052806004548152602001600554815260200160065481525060086000820151816000015560208201518160010155604082015181600201559050506004547feeb070fbc21fd17ae1c4d37c3301119b2f323966527f586a868c876a9d3cb96060405160405180910390a26106b2565b600080fd5b565b60065481565b60006060600080600080600454881115156106d457600080fd5b600160028111156106e157fe5b600360009054906101000a900460ff1660028111156106fc57fe5b14151561070857600080fd5b8688306040518084600019166000191681526020018381526020018273ffffffffffffffffffffffffffffffffffffffff1673ffffffffffffffffffffffffffffffffffffffff166c010000000000000000000000000281526014019350505050604051809103902095506040805190810160405280601c81526020017f19457468657265756d205369676e6564204d6573736167653a0a333200000000815250945084866040518083805190602001908083835b6020831015156107e257805182526020820191506020810190506020830392506107bd565b6001836020036101000a03801982511681845116808217855250505050505090500182600019166000191681526020019250505060405180910390209550600093505b6000805490508410156108ee57601b896000600387020181518110151561084857fe5b90602001906020020151019250886001600386020181518110151561086957fe5b906020019060200201516001029150886002600386020181518110151561088c57fe5b9060200190602002015160010290506108e16000858154811015156108ad57fe5b9060005260206000200160009054906101000a900473ffffffffffffffffffffffffffffffffffffffff16878585856104a0565b8380600101945050610825565b8760048190555086600781600019169055506004547fbfed543fce167ec10d36e8be2db30aacbe1c6192efa6a7d0ee41c59a5b74cb6660075460405180826000191660001916815260200191505060405180910390a2505050505050505050565b60008181548110151561095e57fe5b906000526020600020016000915054906101000a900473ffffffffffffffffffffffffffffffffffffffff1681565b60045481565b600160003373ffffffffffffffffffffffffffffffffffffffff1673ffffffffffffffffffffffffffffffffffffffff16815260200190815260200160002060009054906101000a900460ff1615610a8357600060028111156109f257fe5b600360009054906101000a900460ff166002811115610a0d57fe5b141515610a1957600080fd5b6001600360006101000a81548160ff02191690836002811115610a3857fe5b02179055504260058190555060025443016006819055506006547fad799e4987f085fcce4ab50c4412211dc8b5aed74bb11e50978b898f958eeb7460405160405180910390a2610a88565b600080fd5b565b60025481565b60006060600080600080600280811115610aa657fe5b600360009054906101000a900460ff166002811115610ac157fe5b14151515610ace57600080fd5b86883060405180807f636c6f736500000000000000000000000000000000000000000000000000000081525060050184600019166000191681526020018381526020018273ffffffffffffffffffffffffffffffffffffffff1673ffffffffffffffffffffffffffffffffffffffff166c010000000000000000000000000281526014019350505050604051809103902095506040805190810160405280601c81526020017f19457468657265756d205369676e6564204d6573736167653a0a333200000000815250945084866040518083805190602001908083835b602083101515610bd05780518252602082019150602081019050602083039250610bab565b6001836020036101000a03801982511681845116808217855250505050505090500182600019166000191681526020019250505060405180910390209550600093505b600080549050841015610cdc57601b8960006003870201815181101515610c3657fe5b906020019060200201510192508860016003860201815181101515610c5757fe5b9060200190602002015160010291508860026003860201815181101515610c7a57fe5b906020019060200201516001029050610ccf600085815481101515610c9b57fe5b9060005260206000200160009054906101000a900473ffffffffffffffffffffffffffffffffffffffff16878585856104a0565b8380600101945050610c13565b8760048190555086600781600019169055506002600360006101000a81548160ff02191690836002811115610d0d57fe5b02179055506004547f5772aea287abfa0a87a38da2102e52afd9f6295a1f7802813662a81c7027ff4460075460405180826000191660001916815260200191505060405180910390a2505050505050505050565b6000600454905090565b6000600280811115610d7957fe5b600360009054906101000a900460ff166002811115610d9457fe5b141515610da057600080fd5b600754905090565b60055481565b60075481565b6000806000600280811115610dc557fe5b600360009054906101000a900460ff166002811115610de057fe5b141515610dec57600080fd5b6008600001546008600101546008600201549250925092509091925600a165627a7a72305820a8b64d521dd2cb42a580998faf03a22cc0bed5d90f3da339ad9eac5842f698790029",
  "source": "pragma solidity ^0.4.24;\n\ncontract StateChannel {\n    address[] public plist;\n    mapping (address => bool) pmap; // List of players in this channel!\n\n    enum Status { ON, DISPUTE, OFF }\n\n    // Configuration for state channel\n    uint256 public disputePeriod;  // Minimum time for dispute process (time all parties have to submit a command)\n\n    // Current status for channel\n    Status public status;\n    uint256 public bestRound = 0;\n    uint256 public t_start;\n    uint256 public deadline;\n    bytes32 public hstate;\n\n    // List of disputes (i.e. successful state transitions on-chain)\n    struct Dispute {\n        uint256 round;\n        uint256 t_start;\n        uint256 t_settle;\n    }\n\n    Dispute dispute;\n\n    event EventDispute (uint256 indexed deadline);\n    event EventResolve (uint256 indexed bestround);\n    event EventEvidence (uint256 indexed bestround, bytes32 hstate);\n    event EventClose (uint256 indexed bestround, bytes32 hstate);\n\n    modifier onlyplayers { if (pmap[msg.sender]) _; else revert(); }\n\n\n    // The application creates this state channel and updates it with the list of players.\n    // Also sets a fixed dispute period.\n    constructor(address[] _plist, uint _disputePeriod) public {\n\n        for (uint i = 0; i < _plist.length; i++) {\n            plist.push(_plist[i]);\n            pmap[_plist[i]] = true;\n        }\n\n        disputePeriod = _disputePeriod;\n    }\n\n    // Trigger the dispute\n    function triggerDispute() onlyplayers public {\n\n        // Only accept a single command during a dispute\n        require( status == Status.ON );\n        status = Status.DISPUTE;\n        t_start = block.timestamp;\n        deadline = block.number + disputePeriod;\n        emit EventDispute(deadline);\n    }\n\n    // Store a state hash that was authorised by all parties in the state channel\n    // This cancels any disputes in progress if it is associated with the largest nonce seen so far.\n    // ANYONE can relay a message! Important for PISA.\n    function setstate(uint256[] sigs, uint256 _i, bytes32 _hstate) public {\n        require(_i > bestRound);\n        require( status == Status.DISPUTE);\n\n        // Commitment to signed message for new state hash.\n        bytes32 h = keccak256(_hstate, _i, address(this));\n        bytes memory prefix = \"\\x19Ethereum Signed Message:\\n32\";\n        h = keccak256(prefix, h);\n\n        // Check all parties in channel have signed it.\n        for (uint i = 0; i < plist.length; i++) {\n            uint8 V = uint8(sigs[i*3+0])+27;\n            bytes32 R = bytes32(sigs[i*3+1]);\n            bytes32 S = bytes32(sigs[i*3+2]);\n            verifySignature(plist[i], h, V, R, S);\n        }\n\n        // Store new state!\n        bestRound = _i;\n        hstate = _hstate;\n\n        // Tell the world about the new state!\n        emit EventEvidence(bestRound, hstate);\n    }\n\n    function resolve() onlyplayers public {\n        require(block.number > deadline); // Dispute process should be finished?\n        require(status == Status.DISPUTE);\n\n        // Return to normal operations and update bestRound\n        status = Status.OFF;\n\n        // Store dispute... due to successful on-chain transition\n        dispute = Dispute(bestRound, t_start, deadline);\n\n        emit EventResolve(bestRound);\n    }\n\n    // if players are in agreement they can the channel without going through the dispute process\n    function close(uint256[] sigs, uint256 _i, bytes32 _hstate) public {\n        require(status != Status.OFF);\n\n        bytes32 h = keccak256(\"close\", _hstate, _i, address(this));\n        bytes memory prefix = \"\\x19Ethereum Signed Message:\\n32\";\n        h = keccak256(prefix, h);\n\n        // Check all parties in channel have signed it.\n        for (uint i = 0; i < plist.length; i++) {\n            uint8 V = uint8(sigs[i*3+0])+27;\n            bytes32 R = bytes32(sigs[i*3+1]);\n            bytes32 S = bytes32(sigs[i*3+2]);\n            verifySignature(plist[i], h, V, R, S);\n        }\n\n        // Store state\n        bestRound = _i;\n        hstate = _hstate;\n\n        // close the channel\n        status = Status.OFF;\n        \n        // Tell the world about the new state!\n        emit EventClose(bestRound, hstate);\n    }\n\n    // Fetch a dispute.\n    function getDispute() public view returns (uint256, uint256, uint256) {\n        require(status == Status.OFF);\n\n        return (dispute.round, dispute.t_start, dispute.t_settle);\n    }\n\n    // Helper function to verify signatures\n    function verifySignature(address pub, bytes32 h, uint8 v, bytes32 r, bytes32 s) public pure {\n        address _signer = ecrecover(h,v,r,s);\n        if (pub != _signer) revert();\n    }\n\n    // Fetch latest state hash, only fetchable once dispute process has concluded.\n    function getStateHash() public view returns (bytes32) {\n        require(status == Status.OFF);\n\n        return hstate;\n    }\n\n    // Latest round in contract\n    function latestClaim() public view returns(uint) {\n        return bestRound;\n    }\n}",
  "sourcePath": "/home/chris/dev/pisa/statechannels/contracts/StateChannel.sol",
  "compiler": {
    "name": "solc",
    "version": "0.4.24+commit.e67f0147.Emscripten.clang"
  },
  "schemaVersion": "2.0.1",
  "updatedAt": "2018-12-17T17:55:21.189Z"
}