{
  "contractName": "StateChannelFactory",
  "abi": [
    {
      "constant": false,
      "inputs": [
        {
          "name": "_parties",
          "type": "address[]"
        },
        {
          "name": "_disputePeriod",
          "type": "uint256"
        }
      ],
      "name": "createStateChannel",
      "outputs": [
        {
          "name": "addr",
          "type": "address"
        }
      ],
      "payable": false,
      "stateMutability": "nonpayable",
      "type": "function"
    }
  ],
  "bytecode": "0x608060405234801561001057600080fd5b5061114f806100206000396000f300608060405260043610610041576000357c0100000000000000000000000000000000000000000000000000000000900463ffffffff1680631411778b14610046575b600080fd5b34801561005257600080fd5b506100b460048036038101908080359060200190820180359060200190808060200260200160405190810160405280939291908181526020018383602002808284378201915050505050509192919290803590602001909291905050506100f6565b604051808273ffffffffffffffffffffffffffffffffffffffff1673ffffffffffffffffffffffffffffffffffffffff16815260200191505060405180910390f35b60008282610102610179565b8080602001838152602001828103825284818151815260200191508051906020019060200280838360005b8381101561014857808201518184015260208101905061012d565b505050509050019350505050604051809103906000f080158015610170573d6000803e3d6000fd5b50905092915050565b604051610f9a8061018a8339019056006080604052600060045534801561001557600080fd5b50604051610f9a380380610f9a833981018060405281019080805182019291906020018051906020019092919050505060008090505b825181101561014c576000838281518110151561006457fe5b9060200190602002015190806001815401808255809150509060018203906000526020600020016000909192909190916101000a81548173ffffffffffffffffffffffffffffffffffffffff021916908373ffffffffffffffffffffffffffffffffffffffff16021790555050600180600085848151811015156100e457fe5b9060200190602002015173ffffffffffffffffffffffffffffffffffffffff1673ffffffffffffffffffffffffffffffffffffffff16815260200190815260200160002060006101000a81548160ff021916908315150217905550808060010191505061004b565b81600281905550505050610e35806101656000396000f3006080604052600436106100db576000357c0100000000000000000000000000000000000000000000000000000000900463ffffffff16806302bf9e7f146100e0578063200d2ed21461015a5780632810e1d61461019357806329dcb0cf146101aa5780633f5de7ed146101d5578063445ddf3c14610253578063476e494f146102c057806352f91acf146102eb5780635bf31d4d146103025780635c8734811461032d578063600c1f16146103ab5780637591e627146103d65780637e8cbcb31461040957806382dbab7314610434578063948b557a14610467575b600080fd5b3480156100ec57600080fd5b50610158600480360381019080803573ffffffffffffffffffffffffffffffffffffffff1690602001909291908035600019169060200190929190803560ff169060200190929190803560001916906020019092919080356000191690602001909291905050506104a0565b005b34801561016657600080fd5b5061016f610567565b6040518082600281111561017f57fe5b60ff16815260200191505060405180910390f35b34801561019f57600080fd5b506101a861057a565b005b3480156101b657600080fd5b506101bf6106b4565b6040518082815260200191505060405180910390f35b3480156101e157600080fd5b50610251600480360381019080803590602001908201803590602001908080602002602001604051908101604052809392919081815260200183836020028082843782019150505050505091929192908035906020019092919080356000191690602001909291905050506106ba565b005b34801561025f57600080fd5b5061027e6004803603810190808035906020019092919050505061094f565b604051808273ffffffffffffffffffffffffffffffffffffffff1673ffffffffffffffffffffffffffffffffffffffff16815260200191505060405180910390f35b3480156102cc57600080fd5b506102d561098d565b6040518082815260200191505060405180910390f35b3480156102f757600080fd5b50610300610993565b005b34801561030e57600080fd5b50610317610a8a565b6040518082815260200191505060405180910390f35b34801561033957600080fd5b506103a960048036038101908080359060200190820180359060200190808060200260200160405190810160405280939291908181526020018383602002808284378201915050505050509192919290803590602001909291908035600019169060200190929190505050610a90565b005b3480156103b757600080fd5b506103c0610d61565b6040518082815260200191505060405180910390f35b3480156103e257600080fd5b506103eb610d6b565b60405180826000191660001916815260200191505060405180910390f35b34801561041557600080fd5b5061041e610da8565b6040518082815260200191505060405180910390f35b34801561044057600080fd5b50610449610dae565b60405180826000191660001916815260200191505060405180910390f35b34801561047357600080fd5b5061047c610db4565b60405180848152602001838152602001828152602001935050505060405180910390f35b6000600185858585604051600081526020016040526040518085600019166000191681526020018460ff1660ff1681526020018360001916600019168152602001826000191660001916815260200194505050505060206040516020810390808403906000865af1158015610519573d6000803e3d6000fd5b5050506020604051035190508073ffffffffffffffffffffffffffffffffffffffff168673ffffffffffffffffffffffffffffffffffffffff1614151561055f57600080fd5b505050505050565b600360009054906101000a900460ff1681565b600160003373ffffffffffffffffffffffffffffffffffffffff1673ffffffffffffffffffffffffffffffffffffffff16815260200190815260200160002060009054906101000a900460ff16156106ad57600654431115156105dc57600080fd5b600160028111156105e957fe5b600360009054906101000a900460ff16600281111561060457fe5b14151561061057600080fd5b6002600360006101000a81548160ff0219169083600281111561062f57fe5b02179055506060604051908101604052806004548152602001600554815260200160065481525060086000820151816000015560208201518160010155604082015181600201559050506004547feeb070fbc21fd17ae1c4d37c3301119b2f323966527f586a868c876a9d3cb96060405160405180910390a26106b2565b600080fd5b565b60065481565b60006060600080600080600454881115156106d457600080fd5b600160028111156106e157fe5b600360009054906101000a900460ff1660028111156106fc57fe5b14151561070857600080fd5b8688306040518084600019166000191681526020018381526020018273ffffffffffffffffffffffffffffffffffffffff1673ffffffffffffffffffffffffffffffffffffffff166c010000000000000000000000000281526014019350505050604051809103902095506040805190810160405280601c81526020017f19457468657265756d205369676e6564204d6573736167653a0a333200000000815250945084866040518083805190602001908083835b6020831015156107e257805182526020820191506020810190506020830392506107bd565b6001836020036101000a03801982511681845116808217855250505050505090500182600019166000191681526020019250505060405180910390209550600093505b6000805490508410156108ee57601b896000600387020181518110151561084857fe5b90602001906020020151019250886001600386020181518110151561086957fe5b906020019060200201516001029150886002600386020181518110151561088c57fe5b9060200190602002015160010290506108e16000858154811015156108ad57fe5b9060005260206000200160009054906101000a900473ffffffffffffffffffffffffffffffffffffffff16878585856104a0565b8380600101945050610825565b8760048190555086600781600019169055506004547fbfed543fce167ec10d36e8be2db30aacbe1c6192efa6a7d0ee41c59a5b74cb6660075460405180826000191660001916815260200191505060405180910390a2505050505050505050565b60008181548110151561095e57fe5b906000526020600020016000915054906101000a900473ffffffffffffffffffffffffffffffffffffffff1681565b60045481565b600160003373ffffffffffffffffffffffffffffffffffffffff1673ffffffffffffffffffffffffffffffffffffffff16815260200190815260200160002060009054906101000a900460ff1615610a8357600060028111156109f257fe5b600360009054906101000a900460ff166002811115610a0d57fe5b141515610a1957600080fd5b6001600360006101000a81548160ff02191690836002811115610a3857fe5b02179055504260058190555060025443016006819055506006547fad799e4987f085fcce4ab50c4412211dc8b5aed74bb11e50978b898f958eeb7460405160405180910390a2610a88565b600080fd5b565b60025481565b60006060600080600080600280811115610aa657fe5b600360009054906101000a900460ff166002811115610ac157fe5b14151515610ace57600080fd5b86883060405180807f636c6f736500000000000000000000000000000000000000000000000000000081525060050184600019166000191681526020018381526020018273ffffffffffffffffffffffffffffffffffffffff1673ffffffffffffffffffffffffffffffffffffffff166c010000000000000000000000000281526014019350505050604051809103902095506040805190810160405280601c81526020017f19457468657265756d205369676e6564204d6573736167653a0a333200000000815250945084866040518083805190602001908083835b602083101515610bd05780518252602082019150602081019050602083039250610bab565b6001836020036101000a03801982511681845116808217855250505050505090500182600019166000191681526020019250505060405180910390209550600093505b600080549050841015610cdc57601b8960006003870201815181101515610c3657fe5b906020019060200201510192508860016003860201815181101515610c5757fe5b9060200190602002015160010291508860026003860201815181101515610c7a57fe5b906020019060200201516001029050610ccf600085815481101515610c9b57fe5b9060005260206000200160009054906101000a900473ffffffffffffffffffffffffffffffffffffffff16878585856104a0565b8380600101945050610c13565b8760048190555086600781600019169055506002600360006101000a81548160ff02191690836002811115610d0d57fe5b02179055506004547f5772aea287abfa0a87a38da2102e52afd9f6295a1f7802813662a81c7027ff4460075460405180826000191660001916815260200191505060405180910390a2505050505050505050565b6000600454905090565b6000600280811115610d7957fe5b600360009054906101000a900460ff166002811115610d9457fe5b141515610da057600080fd5b600754905090565b60055481565b60075481565b6000806000600280811115610dc557fe5b600360009054906101000a900460ff166002811115610de057fe5b141515610dec57600080fd5b6008600001546008600101546008600201549250925092509091925600a165627a7a72305820a8b64d521dd2cb42a580998faf03a22cc0bed5d90f3da339ad9eac5842f698790029a165627a7a72305820cf4d6b8581a3b3b5e8c162800d55275faa5dc25eab6461e8b249df6b6d1352330029",
  "source": "pragma solidity ^0.4.24;\nimport \"./StateChannel.sol\";\n\n// Responsible for creating state channels and forwarding the address back to caller contract. \n// Can be re-used by any contract. \ncontract StateChannelFactory {\n    \n    function createStateChannel(address[] _parties, uint _disputePeriod) public returns (address addr) {\n        return new StateChannel(_parties, _disputePeriod);\n    }\n}\n",
  "sourcePath": "/home/chris/dev/pisa/statechannels/contracts/StateChannelFactory.sol",
  "compiler": {
    "name": "solc",
    "version": "0.4.24+commit.e67f0147.Emscripten.clang"
  },
  "schemaVersion": "2.0.1",
  "updatedAt": "2018-12-17T17:55:21.191Z"
}